:020000040800F2
:10000000008000200D300008090700080B070008D9
:100010000D0700080F070008110700080000000086
:1000200000000000000000000000000013070008AE
:10003000150700080000000017070008190700084E
:100040005D3000085D3000085D3000085D3000085C
:100050005D3000085D3000085D3000085D3000084C
:100060005D3000085D3000085D30000821070008A1
:100070005D3000085D3000085D3000085D3000082C
:100080005D300008000000005D3000085D300008B1
:100090005D3000085D3000085D3000085D3000080C
:1000A0003107000841070008510700085D300008CB
:1000B0005D3000085D300008610700085D30000811
:1000C0005D3000085D3000085D3000085D300008DC
:1000D0005D3000085D3000085D3000085D300008CC
:1000E0005D3000085D3000085D3000085D300008BC
:1000F0005D3000085D3000085D3000080000000041
:10010000000000005D300008000000005D300008C5
:100110005D300008000000005D3000085D30000820
:100120005D3000085D3000085D3000085D3000087B
:100130005D30000800000000000000005D30000895
:100140005D3000085D300008000000000000000085
:10015000000000000000000000000000000000009F
:100160000000000000000000000000005D300008FA
:100170005D300008000000000000000000000000EA
:10018000000000005D3000080000000000000000DA
:10019000000000000000000000000000000000005F
:1001A00000000000000000005D3000085D30000825
:1001B0005D3000085D3000085D3000080000000080
:1001C000000000005D30000800000000000000009A
:0801D0005D3000085D300008FD
:1001D80010B5054C237833B9044B13B10448AFF379
:1001E80000800123237010BD0C00002000000000D7
:1001F800B830000808B5034B1BB103490348AFF3F7
:10020800008008BD0000000010000020B830000881
:1002180010B58AB0002405940694079408940994AC
:10022800234BDA6C42F00402DA64DA6C02F004025E
:100238000192019ADA6C42F02002DA64DA6C02F078
:1002480020020292029ADA6C42F00102DA64DA6C55
:1002580002F001020392039ADA6C42F00202DA64B5
:10026800DB6C03F002030493049B4FF46043059393
:1002780005A9104801F0D8FD0223059306940794B8
:1002880005A90D4801F0D0FD832305930694079432
:1002980005A94FF0904001F0C7FD0323059306948C
:1002A800079405A9054801F0BFFD0AB010BD00BFBD
:1002B80000100240000800480014004800040048EC
:1002C80000B583B00E4B9A6C42F004029A649A6CA3
:1002D80002F004020092009A9A6C42F001029A64B9
:1002E8009B6C03F001030193019B002211460B2034
:1002F80002F09EF80B2002F0D3F803B05DF804FB7F
:100308000010024008B54FF40051024801F07DFE8C
:1003180008BD00BF0008004808B5054B834200D05F
:1003280008BD044A0449054802F0A7FAF8E700BFE7
:10033800D0010020280000203000002020010020EB
:1003480072B6FEE710B588B02D482E4B0360002327
:1003580043608360C36003744374837401244461FD
:10036800032282611021C161026244628262C16219
:10037800026343638363C36302F02AF9002834D11C
:10038800002302930393022304930123059340F26D
:100398002133069340F2FF73079302A9184802F02D
:1003A80001FA20BB0023009302221146144802F0F0
:1003B8002CFAF0B9124802F049FAE0B900220121FA
:1003C8000F4802F083FAC0B90F4B4FF480621A60ED
:1003D80000225A609A604FF40021D9601A615A616C
:1003E8009A61DA611A6208B010BDFFF7A9FFFFF73A
:1003F800A7FFFFF7A5FFFFF7A3FFFFF7A1FF00BFC8
:1004080020010020006400403000002000B589B0C1
:100418000023049305930693079301930293039390
:100428001348144A026063224260836040F2FF422C
:10043800C2600361836102F0AFFC98B94FF4805346
:10044800049304A90A4802F0E5FC68B92023019343
:100458000023039301A9064802F078FD30B909B0DA
:100468005DF804FBFFF76CFFFFF76AFFFFF768FF13
:10047800D00100200008004000B589B020220021EA
:10048800684602F00DFE2148214B036000234360BB
:100498008360C360036101224261042181610377A3
:1004A80043770221016280F824304FF4A461C162CD
:1004B8004FF48061016380F83820C36380F84030CE
:1004C80000F05EFAD8B9134B00930623019300237A
:1004D80002937F22039204220492059369460B48F3
:1004E80000F0C6FB68B90C4B00930C2301936946D6
:1004F800064800F0BDFB30B909B05DF804FBFFF712
:100508001FFFFFF71DFFFFF71BFF00BF5400002070
:1005180000010050002090360800900C00B589B00A
:10052800002304930593069307930193029303937F
:100538001548164A02604360836040F23F62C26019
:1005480003614361836102F027FCB0B94FF4805323
:10055800049304A90C4802F05DFC80B920230193A0
:100568004FF4001302930023039301A9064802F0F5
:10057800EDFC30B909B05DF804FBFFF7E1FEFFF7C9
:10058800DFFEFFF7DDFE00BF84010020002C0140E4
:1005980000B595B03822002106A802F081FD00239D
:1005A800019302930393049305934FF4007001F0B1
:1005B800A7FE022306934FF48072099240220A9202
:1005C8000D930E9301220F920A2210921193082282
:1005D8001292139306A800F001FF70B90F2301933C
:1005E80001230293002103910491059101A801F0D0
:1005F800ADF920B915B05DF804FBFFF7A1FEFFF7D0
:100608009FFE00002DE9F04383B000F099FEFFF74C
:10061800BFFFFFF7FDFDFFF753FEFFF793FEFFF760
:10062800F5FEFFF729FFFFF779FF2E4802F002FADF
:100638002D4802F0FFF9022201A92C4800F0D6FD4E
:10064800BDF80450BDF80660EFB22D0A5FFA86F8CF
:10065800360ADFF8A8904FF40051484601F0CEFC66
:1006680004464FF48041484601F0C8FC44EA40047F
:1006780064B24FF40041484601F0C0FC44EA8004EB
:1006880064B202211A4801F0B9FC44EAC00464B219
:1006980001214FF0904001F0B1FC44EA001464B22B
:1006A80002214FF0904001F0A9FC44EA401464B2E2
:1006B80080214FF0904001F0A1FC44EA801464B21C
:1006C80001210C4801F09AFC44EAC0140A4B1E7040
:1006D80083F801809D70DF701C7100225A719A7135
:1006E800DA71ADE784010020D00100205400002019
:1006F80000140048000400482800002000080048B2
:10070800FEE7FEE7FEE7FEE7FEE770477047704743
:1007180008B500F025FE08BD08B5024801F08EFDB9
:1007280008BD00BFC000002008B5024802F0C8F9A3
:1007380008BD00BF8401002008B5024802F0C0F9D6
:1007480008BD00BF8401002008B5024802F0B8F9CE
:1007580008BD00BF8401002008B5024802F0B0F9C6
:1007680008BD00BFD001002082B00A4B1A6E42F0CB
:1007780001021A661A6E02F001020092009A9A6D3E
:1007880042F080529A659B6D03F080530193019B60
:1007980002B070470010024030B599B004460021FD
:1007A80013911491159116911791442202A802F001
:1007B80077FC2268264B9A4201D019B030BD4FF41D
:1007C800004302934FF00053119302A801F0BAF9C5
:1007D800002836D11F4BDA6C42F40052DA64DA6C26
:1007E80002F400520092009ADA6C42F00102DA64D4
:1007F800DB6C03F001030193019B60231393032334
:1008080014930025159513A94FF0904001F00CFBA7
:100818001148124B0360242343608560C560802320
:1008280003614FF4807343614FF480638361202335
:10083800C361056201F04CFC30B9074B63659C62EB
:10084800BBE7FFF77DFDC5E7FFF77AFDF5E700BFDA
:100858000001005000100240C000002008000240C3
:1008680010B598B004460021139114911591169172
:100878001791442202A802F013FC22681A4B9A42EC
:1008880001D018B010BD4FF4805302934FF080731D
:100898000E9302A801F056F910BB144B9A6D42F062
:1008A80000729A659A6D02F000720092009ADA6CF2
:1008B80042F00102DA64DB6C03F001030193019B4F
:1008C8004FF4C053139302231493002315931693E4
:1008D8000923179313A94FF0904001F0A5FAD0E728
:1008E800FFF72EFDD9E700BF00640040001002406A
:1008F80000B583B003681F4A934205D01E4A93424D
:1009080025D003B05DF804FB1C4B1A6E42F400625C
:100918001A661B6E03F400630093009B00221146C5
:10092800182001F085FD182001F0BAFD00221146BB
:10093800192001F07DFD192001F0B2FD00221146B9
:100948001A2001F075FD1A2001F0AAFDD9E70B4B1A
:100958009A6D42F004029A659B6D03F004030193BB
:10096800019B002211461E2001F062FD1E2001F0AD
:1009780097FDC6E7002C0140000800400010024027
:1009880030B583B000230193002800F00D810446A0
:10099800C36D13B323689A6812F0005F05D09A6894
:1009A80022F0204222F03F029A602268936813F0F6
:1009B800805F1FD1936823F0104323F03F0343F077
:1009C80080539360794B1B689B09794AA2FB0323E8
:1009D8009B0901335B00019309E0FFF7DDFE00236B
:1009E800236684F85830D5E7019B013B0193019BAE
:1009F800002BF9D12268936813F0805F40F09C8047
:100A0800E36D43F01003E365236E43F001032366AF
:100A18000120936813F0040300D00123E16D11F065
:100A2800100F40F0BA80002B40F0B780E36D23F43C
:100A3800817343F00203E365936813F0010F15D146
:100A48004FF0A0439B6813F0010300D00123594ADB
:100A5800926812F0010200D00122134306D16368A4
:100A680055498A6822F47C1213438B60627FE36BDA
:100A780043EA4233E2681343A268134394F82420FC
:100A880043EA0243012A59D0E26A22B102F4787299
:100A9800216B0A4313432168CD68484A2A4013430F
:100AA800CB602268136923F04063616B0B431361C9
:100AB80021688B6813F0040300D001238A6812F0C0
:100AC800080200D0012243BB3ABB227F94F8383099
:100AD8005B0043EA8232CB6823F4804323F00203AD
:100AE8001343CB60236973B32268136943F48033DB
:100AF80013612268D2F8C03023F47F5323F03F03F8
:100B080021690B43C2F8C03094F84030012B29D03A
:100B18002268136923F0010313616369012B33D041
:100B28002268136B23F00F031363E36D23F00303B1
:100B380043F00103E36535E000206AE7A26A013A61
:100B480043EA4243A0E72268136923F48033136120
:100B58002268D2F8C03023F47F5323F03F03C2F851
:100B6800C030D1E721680B6923F4FF6323F0040345
:100B7800626CA56C2A43E56C2A43256D2A4313430E
:100B880043F001030B61C8E721680B6B23F00F03E7
:100B9800226A013A13430B63C7E7E36D43F010037E
:100BA800E365012003B030BD0120FBE70800002009
:100BB800632D3E0500010050000300500740F0FF80
:100BC800704708B5806AFFF7FBFF08BD704708B596
:100BD8000346806AC26D12F0500F30D1C36D43F4E2
:100BE8000073C36503681A6812F0080F14D0DA6836
:100BF80012F4406F20D1DB6813F4005F1CD1C36D81
:100C080023F48073C365C36D13F4805F14D1C36D7F
:100C180043F00103C3650FE0DB6813F0020F0BD14B
:100C2800C36D23F48073C365C36D13F4805F03D170
:100C3800C36D43F00103C365FFF764FB08BDC26DD4
:100C480012F0100F04D1426D526B18469047F5E729
:100C5800FFF7BCFFF2E708B5806AC36D43F04003B5
:100C6800C365036E43F004030366FFF7AFFF08BDD7
:100C7800F0B583B00022019290F85820012A00F0C4
:100C88005E820346012280F858200568A86810F0A3
:100C9800040F09D0DA6D42F02002DA650120002243
:100CA80083F8582003B0F0BD4C683035220A920012
:100CB80002F00C02A85804F01F0E1F2404FA0EF4C8
:100CC80020EA04000C68C4F3846C0CFA0EFC40EAB9
:100CD8000C00A8501868826812F0040200D00122A3
:100CE800846814F0080400D00124002A4FD1002C95
:100CF8004DD18D68B5F1004F7CD00F6814307A0E55
:100D0800920002F004028658C7F3045E4FF0070C05
:100D18000CFA0EFC26EA0C0C05FA0EF54CEA050551
:100D280085501868426922F0004242614D6918688E
:100D3800C268C2F3C102520005FA02F20E69042E1B
:100D480070D0603050F82670A94D3D400F6807F00C
:100D5800F8473A43154345F0004540F826501A68CD
:100D68000E698869603252F8265025F0807528434C
:100D780042F826001A680D69087F01284FD06032B2
:100D880052F8250020F00070044342F825401A6804
:100D9800906810F0010F12D10868CD68954CA542F3
:100DA80000F0A780D2F8B040C0F3120024EA000097
:100DB800C2F8B000C8688F4A904200F0A2800A6862
:100DC8008D490A4200F0B3818C49896801F0E070CE
:100DD8008B4CA24200F062818A4CA24200F05E81F4
:100DE800894CA24200F08081884CA24200F08E819A
:100DF800002054E70D6814306A0E920002F00402D5
:100E08008658C5F30455072707FA05F526EA0505A8
:100E180085501868426942F00042426186E74FF007
:100E28000074ACE7026E046EC4F384640A68C2F30B
:100E380012057DBBC2F38462944233D01C68626E93
:100E4800606EC0F384600A68C2F312057DBBC2F30A
:100E58008462904233D01C68A26EA06EC0F3846096
:100E68000A68C2F312057DBBC2F38462904233D094
:100E78001C68E26EE06EC0F384600A68C2F3120573
:100E88007DBBC2F38462904281D1E26E22F00042BF
:100E9800E2667CE792FAA2F212B1B2FA82F2CBE7EA
:100EA8002022C9E7026E22F000420266C6E792FAE3
:100EB800A2F212B1B2FA82F2CBE72022C9E7626E3F
:100EC80022F000426266C6E792FAA2F212B1B2FAC2
:100ED80082F2CBE72022C9E7A26E22F00042A26686
:100EE800C6E792FAA2F212B1B2FA82F2CBE7202256
:100EF800C9E7D2F8B040C0F312002043C2F8B000EE
:100F080058E71C680A68C2F31205002D38D1900E04
:100F1800013000F01F0009288CBF002001200028A4
:100F280076D0002D3BD1900E0130800600F0F840BD
:100F3800002D40D1960E013606F01F070126BE404F
:100F48003043002D45D1920E013202F01F0202EB10
:100F5800420212050243886804F11406550EAD00DA
:100F680005F004057459C2F304524FF0070C0CFA4B
:100F780002FC24EA0C0C90404CEA000070511EE779
:100F880092FAA2F048B1B0FA80F0013000F01F00E8
:100F980009288CBF00200120C1E72020F5E792FA3C
:100FA800A2F030B1B0FA80F00130800600F0F840CD
:100FB800BEE72020F8E792FAA2F646B1B6FA86F61E
:100FC800013606F01F06012707FA06F6B8E72026BD
:100FD800F6E792FAA2F242B1B2FA82F2013202F0D4
:100FE8001F0202EB42021205B4E72022F6E700BF17
:100FF80000F0FF0300007F4000000880000300505D
:10100800000021C31000C090000052C7000084CB2C
:10101800CDB9900E0130800600F0F840FDB9960E6B
:10102800013606F01F070126BE4030432DBB920E45
:10103800013202F01F0202EB42021E3A120542F090
:101048000072024387E792FAA2F030B1B0FA80F05A
:101058000130800600F0F840E0E72020F8E792FA37
:10106800A2F646B1B6FA86F6013606F01F06012743
:1010780007FA06F6D9E72026F6E792FAA2F25AB15D
:10108800B2FA82F2013202F01F0202EB42021E3A69
:10109800120542F00072D4E72022F3E711F4000FA2
:1010A8007FF49EAE1A68B2F1A04F01D00020F6E599
:1010B80040F4000023498A6822F0E07210438860F7
:1010C800214A126892092149A1FB021292090132B0
:1010D80002EB420292000192019A1AB1019A013A76
:1010E8000192F9E70020DAE511F0807F7FF47CAE09
:1010F8001968174A91421CD040F0807011498A68DB
:1011080022F0E072104388600020C8E511F4800FD7
:1011180011D119680E4A91420FD040F48002094853
:10112800816821F0E0710A4382600020B7E5002061
:10113800B5E50020B3E50020B1E50020AFE50220C9
:10114800B0E500BF0003005008000020632D3E05F5
:101158000001005038B503689A6812F0010F40D1B9
:1011680004469968204A114209D0C36D43F0100320
:10117800C365036E43F001030366012032E09A68F9
:1011880022F0004222F03F0242F001029A6000F091
:10119800F3F8054623681A6812F0010F1FD19A6800
:1011A80012F0010F07D19A6822F0004222F03F02A4
:1011B80042F001029A6000F0DFF8431B022BE9D9E4
:1011C80023681B6813F0010FE4D1E36D43F01003AB
:1011D800E365236E43F001032366012002E000204B
:1011E80000E0002038BD00BF3F000080F8B504468D
:1011F8003A4B9D680068806810F0040F69D10E466C
:10120800174605F01F0594F85830012B63D00123C9
:1012180084F8583045B1052D06D0092D04D0002397
:1012280084F85830012055E02046FFF793FF002846
:101238004BD1E36D23F4706323F0010343F480730F
:10124800E3652368264A934239D01A46934200D070
:101258001DB9E36D23F48013E365E36D13F4805F38
:1012680030D0236E23F006032366636D1D4ADA62CD
:10127800636D1D4A1A63636D1C4A5A6323681C22F6
:101288001A60002384F858302268536843F010032A
:1012980053602268D36843F00103D36021683B465A
:1012A80032464031606D00F07FFF2268936823F07A
:1012B800004323F03F0343F0040393600AE04FF038
:1012C800A042C3E700232366CFE7002384F8583001
:1012D80000E00220F8BD0220FCE700BF0003005038
:1012E80000010050D70B0008CB0B00085F0C00086A
:1012F800104B1B680BB90120704710B504464FF41A
:101308007A70B0FBF3F30C4A1068B0FBF3F001F00D
:10131800D5F868B90F2C01D901200AE0002221462E
:101328004FF0FF3001F084F8044B1C60002000E00F
:10133800012010BD0000002008000020040000204B
:1013480010B5032001F062F80F20FFF7D1FF10B1AC
:101358000124204610BD0446FFF706FAF9E700000D
:10136800034A1368034909680B441360704700BFB8
:101378001C02002000000020014B1868704700BFC5
:101388001C020020124BDA6802F00302D868C0F38E
:101398000310431C032A11D00E48B0FBF3F00C4B8A
:1013A800DB68C3F3062303FB00F0094BDB68C3F3D8
:1013B800416301335B00B0FBF3F070470648B0FBB4
:1013C800F3F0034BDB68C3F3062303FB00F0ECE701
:1013D800001002400024F40000127A00002800F0F7
:1013E800548270B582B00446036813F0010F37D0F9
:1013F800A44A936803F00C03D26802F003020C2B92
:1014080023D0082B23D06368B3F5803F4ED0B3F5C3
:10141800A02F51D09B4B1A6822F480321A601A68A8
:1014280022F480221A606368002B52D0FFF7A4FFD1
:101438000546944B1B6813F4003F11D1FFF79CFF3E
:10144800401B6428F5D9032028E2032AD9D18D4B03
:101458001B6813F4003F03D06368002B00F0178269
:10146800236813F0020F5DD0864A936803F00C03DB
:10147800D26802F003020C2B3AD0042B3AD0E3686E
:10148800002B75D07F4A136843F480731360FFF70D
:1014980073FF05467B4B1B6813F4806F5FD1FFF722
:1014A8006BFF401B0228F5D90320F7E1754A136842
:1014B80043F480331360B6E703F18043A3F53C336C
:1014C8001A6842F480221A601A6842F480321A605C
:1014D800A9E7FFF751FF05466A4B1B6813F4003F65
:1014E800BED0FFF749FF401B6428F5D90320D5E19A
:1014F800022AC2D1634B1B6813F4806F03D0E368E0
:10150800002B00F0C6815F4A536823F0FE4321692F
:1015180043EA016353605C4B1868FFF7E9FE002853
:1015280040F0B981236813F0080F4CD063699BB36E
:10153800544AD2F8943043F00103C2F89430FFF7CC
:101548001BFF05464F4BD3F8943013F0020F3AD1E6
:10155800FFF712FF401B0228F4D903209EE1494AF5
:10156800536823F0FE43216943EA01635360D9E7D6
:10157800444A136823F480731360FFF7FDFE0546A1
:10158800404B1B6813F4806FCCD0FFF7F5FE401B6F
:101598000228F5D9032081E13A4AD2F8943023F0A1
:1015A8000103C2F89430FFF7E7FE0546354BD3F840
:1015B800943013F0020F06D0FFF7DEFE401B02281E
:1015C800F4D903206AE1236813F0040F00F0818046
:1015D8002C4B9B6D13F0805F36D12A4B9A6D42F0ED
:1015E80080529A659B6D03F080530193019B0125FE
:1015F800264B1B6813F4807F28D0A368012B39D0B1
:10160800052B45D01F4BD3F8902022F00102C3F8D8
:101618009020D3F8902022F00402C3F89020A36809
:10162800002B43D0FFF7A8FE0646164BD3F89030A0
:1016380013F0020F4CD1FFF79FFE801B41F2883355
:101648009842F2D9032029E10025D1E70F4A13680F
:1016580043F480731360FFF78FFE06460B4B1B683D
:1016680013F4807FC9D1FFF787FE801B0228F5D9C4
:10167800032013E1034AD2F8903043F00103C2F883
:101688009030CCE7001002400400002000700040B9
:101698008A4BD3F8902042F00402C3F89020D3F884
:1016A800902042F00102C3F89020B8E7FFF764FEEB
:1016B8000646824BD3F8903013F0020F08D0FFF79C
:1016C8005BFE801B41F288339842F2D90320E5E0A3
:1016D800E5B9236813F0200F35D0A369E3B1774A41
:1016E800D2F8983043F00103C2F89830FFF744FE6F
:1016F8000546724BD3F8983013F0020F23D1FFF749
:101708003BFE401B0228F4D90320C7E06B4A936DC7
:1017180023F080539365DCE7684AD2F8983023F0C9
:101728000103C2F89830FFF727FE0546634BD3F84C
:10173800983013F0020F06D0FFF71EFE401B022858
:10174800F4D90320AAE0E369002B00F0A6805B4AE5
:10175800926802F00C020C2A69D0022B1DD0574B5C
:101768001A6822F080721A60DA6822F00302DA60DE
:10177800DA6822F0887222F48032DA60FFF7FCFD22
:1017880004464E4B1B6813F0007F4ED0FFF7F4FD64
:10179800001B0228F5D9032080E0484A136823F08B
:1017A80080731360FFF7E8FD0546444B1B6813F090
:1017B800007F06D0FFF7E0FD401B0228F5D9032083
:1017C8006CE03E4AD3683E491940236A606A013892
:1017D80043EA0013A06A43EA0023206B400801385B
:1017E80043EA4053606B4008013843EA4063E06ACB
:1017F80043EAC0630B43D360136843F080731360FC
:10180800D36843F08073D360FFF7B6FD04462B4BD3
:101818001B6813F0007F06D1FFF7AEFD001B0228FE
:10182800F5D903203AE0002038E0002036E0012B0B
:1018380036D0224BDB6803F00301226A914231D192
:1018480003F0F002616A0139B2EB011F2CD103F4F5
:10185800FE42A16AB2EB012F28D103F07842E16A77
:10186800B2EBC16F24D103F4C001226B5208013AD4
:10187800B1EB425F1ED103F0C063626B5208013ABC
:10188800B3EB426F18D1002008E001207047012017
:1018980004E0012002E0012000E0002002B070BD59
:1018A8000120FBE70120F9E70120F7E70120F5E730
:1018B8000120F3E70120F1E70120EFE700100240E3
:1018C8000C809F011E4B9B6803F00C03042B33D044
:1018D8001B4B9B6803F00C03082B2FD0184B9B68FD
:1018E80003F00C030C2B01D000207047144BDA686E
:1018F80002F00302D868C0F30310431C032A11D076
:101908001048B0FBF3F00E4BDB68C3F3062303FB70
:1019180000F00B4BDB68C3F3416301335B00B0FBA2
:10192800F3F070470848B0FBF3F0054BDB68C3F3EE
:10193800062303FB00F0ECE70248704702487047B3
:10194800001002400024F40000127A00002800F081
:10195800E680F8B50C460546744B1B6803F00F0388
:101968008B420BD2714A136823F00F030B431360A9
:10197800136803F00F038B4240F0D3802E6816F0F3
:1019880001065FD06B68032B2FD0022B4DD0684B1C
:101998001B6813F4806F00F0C680FFF793FF654B58
:1019A80098424DD9624A936823F0F00343F08003CC
:1019B800936080265E4A936823F0030369680B43AB
:1019C8009360FFF7D9FC0746594B9B6803F00C035B
:1019D8006A68B3EB820F35D0FFF7CEFCC01B41F22B
:1019E80088339842F0D9032078E0514B1B6813F0F4
:1019F800007F01D1012071E0FFF7C4FC4D4B9842F4
:101A08001AD94B4B9B6813F0F00F05D02E6816F0CF
:101A18000206CFD0AB688BB9454A936823F0F00330
:101A280043F0800393608026C4E7414B1B6813F49E
:101A3800003FB2D1012051E00026BBE70026B9E7FC
:101A48000026B7E72B6813F0020F48D013F0040FF5
:101A580004D0374A936843F4E06393602B6813F02B
:101A6800080F06D0324A936823F47C5343F4E063AA
:101A780093602F4A936823F0F003A9680B4393609F
:101A88002A4B1B6803F00F03A34230D82B6813F0CE
:101A9800040F06D0264A936823F4E063E9680B43F1
:101AA80093602B6813F0080F07D0214A936823F43A
:101AB8006053296943EAC1039360FFF703FF1C4B96
:101AC8009B68C3F303131C4AD35C03F01F03D8407D
:101AD8001A4B18601A4B1868FFF70AFCF8BD802EDD
:101AE800CED1134A936823F0F0039360C8E70F4AF6
:101AF800136823F00F0323431360FFF73DFC0646EA
:101B08000A4B1B6803F00F03A342BFD0FFF734FC56
:101B1800801B41F288339842F2D90320DEE7012086
:101B280070470120DAE70120D8E700BF0020024013
:101B38000010024000B4C404E0300008080000208F
:101B480004000020F0B583B00446036813F4002FA6
:101B580069D0AE4B9B6D13F0805F1ED1AB4B9A6D75
:101B680042F080529A659B6D03F080530193019B6C
:101B78000126A74A136843F480731360FFF7FCFB40
:101B88000546A34B1B6813F4807F08D1FFF7F4FBCD
:101B9800401B0228F5D9032502E00026E9E70025C5
:101BA80045BB9A4BD3F8903013F4407315D0226C90
:101BB8009A4212D0954AD2F8903023F44073D2F862
:101BC800901041F48031C2F89010D2F8901021F4AE
:101BD8008031C2F89010C2F8903013F0010F10D184
:101BE80045B98A4AD2F8903023F44073216C0B43EC
:101BF800C2F89030C6B1854A936D23F0805393653F
:101C080012E0FFF7B9FB0746804BD3F8903013F08A
:101C1800020FE5D1FFF7B0FBC01B41F288339842B1
:101C2800F2D90325DCE70025236813F0010F08D05B
:101C3800764AD2F8883023F0030361680B43C2F870
:101C48008830236813F0020F08D0704AD2F8883021
:101C580023F00C03A1680B43C2F88830236813F003
:101C6800040F08D0694AD2F8883023F03003E168BD
:101C78000B43C2F88830236813F0080F08D0634A72
:101C8800D2F8883023F0C00321690B43C2F88830AA
:101C9800236813F0200F08D05C4AD2F8883023F468
:101CA800406361690B43C2F88830236813F0400F22
:101CB80008D0564AD2F8883023F44053A1690B4320
:101CC800C2F88830236813F0800F08D04F4AD2F842
:101CD800883023F44043E1690B43C2F88830236815
:101CE80013F4807F08D0494AD2F8883023F440336F
:101CF800216A0B43C2F88830236813F4007F08D0A8
:101D0800424AD2F8883023F44023616A0B43C2F870
:101D18008830236813F4806F0CD03C4AD2F888309E
:101D280023F44013A16A0B43C2F88830A36AB3F5C1
:101D3800801F57D0236813F4006F0CD0334AD2F8B1
:101D4800883023F44003E16A0B43C2F88830E36A21
:101D5800B3F5800F4BD0236813F4805F0CD02B4A67
:101D6800D2F8883023F04073216B0B43C2F88830D7
:101D7800236BB3F1807F3FD0236813F4005F0CD04E
:101D8800224AD2F8883023F04063616B0B43C2F8D3
:101D98008830636BB3F1006F33D0236813F4804F3E
:101DA8000CD01A4AD2F8883023F04063A16B0B4359
:101DB800C2F88830A36BB3F1006F2BD0236813F4FB
:101DC800004F0CD0114AD2F8883023F04053E16B11
:101DD8000B43C2F88830E36BB3F1805F1FD028460D
:101DE80003B0F0BDD36843F48013D360A2E7D3688F
:101DF80043F48013D360AEE7D36843F48013D36011
:101E0800BAE7D36843F48013D360C6E700100240F2
:101E180000700040D36843F48013D360CEE7D368E2
:101E280043F48033D360DAE7F0B583B0002362E08F
:101E380085685E000324B44025EA0405CC68B440F4
:101E48002C438460446824EA0C0C4C68C4F30014E6
:101E58009C4044EA0C0444605EE0DD08083550F814
:101E6800256003F007044FEA840C0F2404FA0CF4ED
:101E780026EA040E0C6904FA0CF444EA0E0440F84D
:101E8800254060E0052400E0002404FA0EF42C4309
:101E98000CF1020C554D45F82C40554CA568D4431F
:101EA80025EA02064F6817F4801F01D042EA0506AA
:101EB8004F4DAE60ED6804EA05064F6817F4001F41
:101EC80001D042EA05064A4DEE606D6804EA05064F
:101ED8004F6817F4003F01D042EA0506444D6E6092
:101EE8002D682C404E6816F4803F01D042EA050464
:101EF8003F4A146001330A6832FA03F474D04FF091
:101F0800010C0CFA03FC1CEA0202F3D04C6804F042
:101F18000304013C012C8BD94C6804F00304032C06
:101F28000CD0C4685D004FF0030C0CFA05FC24EAE1
:101F38000C0C8C68AC4044EA0C04C4604C6804F097
:101F48000304022C89D004684FEA430E4FF0030CB7
:101F58000CFA0EFC24EA0C0C4C6804F0030404FA96
:101F68000EF444EA0C0404604C6814F4403FC1D0F9
:101F7800204C256E45F001052566246E04F0010409
:101F88000194019C4FEA930C0CF10205174C54F88C
:101F9800255003F003044FEA840E0F2404FA0EF4CC
:101FA80025EA0405B0F1904F3FF46EAF124CA04201
:101FB80012D004F58064A04210D004F58064A042D9
:101FC8000ED004F58064A0420CD004F58064A042D1
:101FD8003FF458AF062458E7012456E7022454E793
:101FE800032452E7042450E703B0F0BD0000014089
:101FF800000401400010024000040048036919422F
:1020080001D00120704700207047436901EA0302AC
:1020180021EA030141EA02418161704730B4C46C8E
:10202800056D6560446D14B1846DC56D6560446C63
:1020380004F01F0C012404FA0CF4056C6C600468AD
:1020480063608368102B05D0036899600368DA60C1
:1020580030BC704703689A600368D960F8E70000ED
:1020680003680C4A934213D80B49DBB2083B0B4A6E
:10207800A2FB0323426C22F003020A448264084A4A
:10208800C264C3F30413012202FA03F30365704721
:102098000449EAE70704024000080240CDCCCCCC52
:1020A80080080240200802400379074A1A44920037
:1020B8004265064A8265013B03F01F03012202FACA
:1020C80003F3C365704700BF3F8200104009024018
:1020D80000285BD010B5044601682D4B99423DD8C5
:1020E8002C4B0B442C4AA2FB03231B099B00436483
:1020F8002A4B0364022384F825300A6822F4FF423D
:1021080022F07002A368E068034320690343606912
:102118000343A0690343E0690343206A034313436D
:102128000B602046FFF79CFFA368B3F5804F20D0D3
:10213800A36C22791A60E36C226D5A606368013BD4
:10214800032B19D900236365A365E3650020E063C9
:10215800012384F8253084F8240010BD104B0B446B
:102168000D4AA2FB03231B099B0043640D4B036428
:10217800C0E700236360DBE72046FFF795FF636D48
:1021880000221A60A36DE26D5A60DFE701207047F4
:1021980007040240F8FFFDBFCDCCCCCC00000240C4
:1021A800F8FBFDBF0004024038B5044690F824004F
:1021B800012841D0012084F8240094F82500C0B2F9
:1021C800012804D0002384F82430022038BD0220DE
:1021D80084F825000020E0632568286820F00100C5
:1021E80028602046FFF71AFF236BD3B122681368D3
:1021F80043F00E031360A36C1A6812F4803F03D0F7
:102208001A6842F480721A60636D1BB11A6842F44E
:1022180080721A602268136843F00103136000207B
:10222800D4E72268136823F0040313602268136854
:1022380043F00A031360DEE70220C7E738B5036CF2
:10224800196804682568436C03F01F0304229A4048
:102258000A4215D015F0040F12D0236813F0200F8E
:1022680003D1236823F004032360436C03F01F02A7
:10227800016C042393404B60036B03B1984738BD4E
:1022880002229A400A421CD015F0020F19D0236886
:1022980013F0200F06D1236823F00A0323600123DB
:1022A80080F82530436C03F01F02016C0223934031
:1022B8004B60002380F82430C36A002BDFD0984796
:1022C800DDE7082202FA03F30B42D8D015F0080F15
:1022D800D5D0236823F00E032360436C03F01F035B
:1022E800016C012202FA03F34B60C26380F82520D7
:1022F800002380F82430436B002BC0D09847BEE7FA
:10230800002836D13E4B1B6803F4C063B3F5806FD9
:1023180008D03B4AD2F8803023F48073C2F880306A
:1023280000207047364AD2F8803023F48073C2F810
:102338008030136823F4C06343F400731360314B97
:102348001B68322202FB03F32F4AA2FB03239B0CD8
:10235800013300E0013B2A4A526912F4806F01D030
:10236800002BF7D1264B5B6913F4806F44D1002012
:102378007047B0F5007F08D0214A136823F4C06382
:1023880043F480631360002070471D4B1B6803F4FF
:10239800C063B3F5806F08D0194AD2F8803043F48F
:1023A8008073C2F8803000207047154AD2F8803018
:1023B80043F48073C2F88030136823F4C06343F495
:1023C800007313600F4B1B68322202FB03F30E4AA3
:1023D800A2FB03239B0C013300E0013B084A52692E
:1023E80012F4806F01D0002BF7D1054B5B6913F411
:1023F800806F03D100207047032070470320704787
:10240800007000400800002083DE1B43074AD368A1
:1024180023F4E0631B041B0C000200F4E060034398
:1024280043F0BF6343F40033D360704700ED00E02E
:1024380000B5194BDB68C3F30223C3F1070CBCF1E9
:10244800040F28BF4FF0040C03F1040EBEF1060F71
:1024580018D9033B4FF0FF3E0EFA0CFC21EA0C01A1
:1024680099400EFA03F322EA0303194300280BDB11
:102478000901C9B200F1604000F5614080F800131D
:102488005DF804FB0023E5E700F00F000901C9B27D
:10249800024B1954F4E700BF00ED00E014ED00E032
:1024A800002807DB00F01F02400901239340024A7D
:1024B80042F82030704700BF00E100E00138B0F179
:1024C800807F0BD24FF0E0235861054AF02182F853
:1024D80023100020986107221A6170470120704775
:1024E80000ED00E010B4154B03640168D1F88020BA
:1024F80022F4F812446B42EA0442C1F88020104AE0
:1025080042640168D1F8802022F07062846B42EA4C
:102518000462C1F880200B4A8264D832C264D8327F
:1025280002651832426502E0002243F8042B064A8D
:102538009342F9D95DF8044B704700BF00A40040EE
:1025480070A40040B0A400404FA7004070B54C688C
:10255800E4B90D698C6825430C6845EA8445CC6963
:102568000E6A44EA06648E6934434E693443CE6881
:102578003443406D03EBC30300EBC30E40F8335004
:10258800CEF804400EF1080E002019E00C698D68A1
:1025980025430C68254345F08045E0E702EB000C35
:1025A8009CF803409CF802301B0443EA04639CF83F
:1025B800014043EA0423145C23434EF8043B0430EF
:1025C800CB89024CE35C8342E8D870BDD030000868
:1025D800002800F0E38038B5044690F85C30D3B1A9
:1025E8002268936923F010039361FEF7C5FE054640
:1025F80023689A6912F0080F12D0FEF7BDFE401B3F
:102608000A28F5D9236E43F001032366032384F8CF
:102618005C30012038BD80F85D30FEF721F9DFE736
:102628009A6942F001029A61FEF7A6FE0546236800
:102638009A6912F0010F0DD1FEF79EFE401B0A2881
:10264800F5D9236E43F001032366032384F85C3035
:102658000120DFE79A6942F002029A612268504B32
:102668009A4242D0237C012B45D02268936943F0DB
:1026780040039361637C012B43D02268936923F460
:1026880080439361A37C012B41D02268936943F472
:10269800805393612268936923F44073A1680B43C4
:1026A80093612268936923F0A403936122681369F4
:1026B80023F010031361E368012B2ED0002B31D0D7
:1026C800022B54D02268936943F0800393612268F7
:1026D800136943F010031361E368032B22D12268C6
:1026E800936943F0200393611CE06268A3F580635B
:1026F800C3F80025B6E72268936923F04003936185
:10270800B8E72268936943F480439361BAE7226883
:10271800936923F480539361BCE72268936943F07B
:1027280004039361A3695A1EE369013B1B0243EA50
:102738004263226A013A13436269013A216843EA13
:102748000243CB61A368B3F5407F16D02268D2F864
:10275800C030E16B0B43C2F8C0302046FFF7C2FE21
:102768000020A0652066012384F85C3052E72268C7
:10277800936943F020039361D4E7A36A013BE26ABB
:10278800013A43EA0223226B013A43EA0213626ADE
:10279800013A216843EA0243CB60D7E7012070473A
:1027A8000064004090F85C30013BDBB2012B05D996
:1027B800036E43F002030366012070470B68A3B160
:1027C80010B4CA680B6943EA42724B698C6843EAE1
:1027D8008473406C496800EBC10C40F83120CCF898
:1027E800043000205DF8044B70478A68CB68DB062C
:1027F80043EA82730A6943EA02434A691343026C53
:10280800496842F821300020704790F85CC05FFAB0
:102818008CFCBCF1010F05D0036E43F00403036682
:102828000120704710B40468D4F8800020F03F00FD
:10283800920042EA011242EA4302019B1A43024310
:10284800C4F8802000205DF8044B704790F85C3095
:10285800DBB2012B05D0036E43F0040303660120AD
:102868007047022380F85C300268936923F0010303
:102878009361002303661846704738B5044690F8FC
:102888005C30DBB2022B1BD10368D3F8C40010F410
:10289800001F05D0236E43F400732366012014E063
:1028A800D3F8C450C5F301452B462046FFF74EFE2A
:1028B80022680123AB40C2F8CC30A365002004E0B5
:1028C800036E43F008030366012038BD90F85C30BE
:1028D800013BDBB2012B05D9036E43F0020303660B
:1028E8000120704770B40468A36D11F0070602D088
:1028F80013F0010F23D011F0380F02D013F0020F9C
:102908001DD011F4E07F02D013F0040F17D011F49A
:10291800F05F02D013F0080F11D011F4604F02D00D
:1029280013F0100F0BD011F4403F02D013F0200F1A
:1029380005D011F47C0F06D013F0400F03D1E56DDC
:1029480045F00105E56516B113F0010F23D111F02B
:10295800380F02D013F0020F1DD111F4E07F02D01E
:1029680013F0040F17D111F4F05F02D013F0080F21
:1029780011D111F4604F02D013F0100F0BD111F4E4
:10298800403F02D013F0200F05D111F47C0F07D07F
:1029980013F0400F04D00468E36D43F00203E365CD
:1029A80011F0800F05D00468D4F8DC301343C4F864
:1029B800DC3011F4807F05D00468D4F8E0301A4385
:1029C800C4F8E0200268536D19435165002070BCBB
:1029D800704710B4036A046A24F00104046284692D
:1029E80024F0F00C4CEA021223F00A030B43826134
:1029F80003625DF8044B704710B4046A24F01004B5
:102A080004628469036A24F4704C4CEA023223F0AD
:102A1800A00343EA0113826103625DF8044B704727
:102A2800836823F4401323F070030B4343F0070338
:102A38008360704790F83D30DBB2012B32D102231E
:102A480080F83D300268D36843F00103D36003681F
:102A5800174A934218D0B3F1804F15D0A2F594329B
:102A6800934211D002F5806293420DD002F596325E
:102A7800934209D002F54062934205D01A6842F0A9
:102A880001021A600020704799680A4A0A40062A1B
:102A98000AD0B2F5803F09D01A6842F001021A60E4
:102AA80000207047012070470020704700207047C1
:102AB800002C0140070001007047704770477047BD
:102AC80010B5044603681A6912F0020F12D0DA68CA
:102AD80012F0020F0ED06FF002021A610123037781
:102AE80003689B6913F0030F00F09F80FFF7E5FF71
:102AF8000023237723681A6912F0040F13D0DA68C9
:102B080012F0040F0FD06FF004021A61022323772A
:102B180023689B6913F4407F00F08D802046FFF7FF
:102B2800CCFF0023237723681A6912F0080F12D00C
:102B3800DA6812F0080F0ED06FF008021A61042349
:102B480023772368DB6913F0030F7BD02046FFF758
:102B5800B4FF0023237723681A6912F0100F12D0EC
:102B6800DA6812F0100F0ED06FF010021A61082305
:102B780023772368DB6913F4407F6AD02046FFF788
:102B88009CFF0023237723681A6912F0010F03D0F2
:102B9800DA6812F0010F63D123681A6912F0800F06
:102BA80003D0DA6812F0800F61D123681A6912F431
:102BB800807F03D0DA6812F0800F5FD123681A692A
:102BC80012F0400F03D0DA6812F0400F5DD123688D
:102BD8001A6912F0200F03D0DA6812F0200F5BD1C7
:102BE80023681A6912F4801F03D0DA6812F4801F70
:102BF80059D123681A6912F4001F03D0DA6812F455
:102C0800001F57D123681A6912F4800F03D0DA68BD
:102C180012F4800F55D123681A6912F4000F03D0FB
:102C2800DA6812F4000F53D110BDFFF745FF2046B4
:102C3800FFF744FF5CE72046FFF73EFF2046FFF71B
:102C48003DFF6EE72046FFF737FF2046FFF736FFC8
:102C58007FE72046FFF730FF2046FFF72FFF90E77A
:102C68006FF001021A612046FDF756FB94E76FF0FA
:102C780080021A61204600F0B4F996E76FF480727A
:102C88001A61204600F0AEF998E76FF040021A6129
:102C98002046FFF714FF9AE76FF020021A612046DA
:102CA80000F09EF99CE76FF480121A61204600F04C
:102CB8009AF99EE76FF400121A61204600F094F921
:102CC800A0E76FF480021A61204600F08EF9A2E7AF
:102CD8006FF400021A61204600F088F9A4E70000AA
:102CE80003682C4A90420ED0B0F1804F0BD0A2F569
:102CF8009432904207D002F58062904203D002F5E8
:102D08009632904203D123F070034A681343214A54
:102D180090421AD0B0F1804F17D0A2F59432904269
:102D280013D002F5806290420FD002F5963290429D
:102D38000BD002F54062904207D002F580629042C3
:102D480003D002F58062904203D123F44073CA682D
:102D5800134323F080034A69134303608B68C362FB
:102D68000B6883620B4B98420FD003F500639842BF
:102D78000BD003F54063984207D003F5806398426F
:102D880003D003F58063984201D10B6903630123E3
:102D980043617047002C014060B310B5044690F8B9
:102DA8003D3013B3022384F83D30214651F8040B1B
:102DB800FFF796FF012384F8483084F83E3084F802
:102DC8003F3084F8403084F8413084F8423084F849
:102DD800433084F8443084F8453084F8463084F829
:102DE800473084F83D30002010BD80F83C30FDF7B6
:102DF8007FFDD7E70120704710B4846824F47F4C26
:102E080042EA03220A4342EA0C0282605DF8044B5C
:102E18007047000090F83C30012B00F08F8010B50F
:102E28000446012380F83C30022380F83D300268D4
:102E38009068434B034093600B68702B55D031D892
:102E4800502B6CD00CD9602B2AD1CA6849682068ED
:102E5800FFF7D2FD60212068FFF7E2FD002035E092
:102E6800402B0AD1CA6849682068FFF7B2FD4021A3
:102E78002068FFF7D5FD002028E05BD8202B07D07D
:102E880003D9302B04D0012020E00BB1102B05D141
:102E980019462068FFF7C4FD002017E0012015E05F
:102EA800012013E0B3F5005F2CD00BD9254A9342DB
:102EB800EED012D9244A9342EAD030329342E7D076
:102EC800012003E0B3F5805F36D10020012384F8A8
:102ED8003D30002384F83C3010BDB3F1101FD7D02B
:102EE800103A9342D4D00120F0E7CB684A68896849
:102EF8002068FFF781FF2268936843F077039360A7
:102F08000020E3E7CB684A6889682068FFF774FF08
:102F18002268936843F4804393600020D6E7CA6828
:102F280049682068FFF755FD50212068FFF778FDB4
:102F38000020CBE70120C9E70120C7E7022070473E
:102F48008800CEFF300010004000100090F83C30A0
:102F5800012B40D030B4012380F83C30022380F8A4
:102F68003D300268536894681C4DAA4203D005F5A9
:102F78000065AA4203D123F470034D682B4323F064
:102F8800007323F070030D682B4353600368134AE2
:102F9800934212D0B3F1804F0FD0A2F594329342EE
:102FA8000BD002F58062934207D002F59632934225
:102FB80003D002F54062934204D124F080048A6869
:102FC80014439C60012380F83D30002380F83C3096
:102FD800184630BC70470220704700BF002C0140E3
:102FE80070477047704770477047704770470000D8
:102FF800034AD2F8883043F47003C2F88830704727
:1030080000ED00E00D4885460D480E490E4A0023A4
:1030180002E0D458C4500433C4188C42F9D30B4A84
:103028000B4C002301E013600432A242FBD3FFF7EC
:10303800DFFF00F011F8FDF7E5FAFEE70080002059
:10304800000000200C000020F83000080C000020D0
:1030580020020020FEE7000070B50D4D0D4C641BEA
:10306800A4100026A64209D10B4D0C4C00F020F804
:10307800641BA4100026A64205D170BD55F8043B78
:1030880098470136EEE755F8043B98470136F2E7D2
:10309800F0300008F0300008F0300008F430000884
:1030A80002440346934200D1704703F8011BF9E735
:1030B800F8B500BFF8BC08BC9E467047F8B500BF1D
:0830C800F8BC08BC9E467047ED
:1030D0000001020304050607080C101418203040F4
:1030E00000000000000000000102030406070809B8
:0430F000FD010008D6
:0430F400D9010008F6
:0C30F80001000000100000000024F400A3
:040000050800300DB2
:00000001FF
